{
  "contractName": "N1CEToken",
  "abi": [
    {
      "inputs": [],
      "stateMutability": "nonpayable",
      "type": "constructor"
    },
    {
      "anonymous": false,
      "inputs": [
        {
          "indexed": true,
          "internalType": "address",
          "name": "owner",
          "type": "address"
        },
        {
          "indexed": true,
          "internalType": "address",
          "name": "spender",
          "type": "address"
        },
        {
          "indexed": false,
          "internalType": "uint256",
          "name": "value",
          "type": "uint256"
        }
      ],
      "name": "Approval",
      "type": "event"
    },
    {
      "anonymous": false,
      "inputs": [
        {
          "indexed": true,
          "internalType": "address",
          "name": "previousOwner",
          "type": "address"
        },
        {
          "indexed": true,
          "internalType": "address",
          "name": "newOwner",
          "type": "address"
        }
      ],
      "name": "OwnershipTransferred",
      "type": "event"
    },
    {
      "anonymous": false,
      "inputs": [
        {
          "indexed": false,
          "internalType": "uint256",
          "name": "id",
          "type": "uint256"
        }
      ],
      "name": "Snapshot",
      "type": "event"
    },
    {
      "anonymous": false,
      "inputs": [
        {
          "indexed": true,
          "internalType": "address",
          "name": "from",
          "type": "address"
        },
        {
          "indexed": true,
          "internalType": "address",
          "name": "to",
          "type": "address"
        },
        {
          "indexed": false,
          "internalType": "uint256",
          "name": "value",
          "type": "uint256"
        }
      ],
      "name": "Transfer",
      "type": "event"
    },
    {
      "inputs": [
        {
          "internalType": "address",
          "name": "owner",
          "type": "address"
        },
        {
          "internalType": "address",
          "name": "spender",
          "type": "address"
        }
      ],
      "name": "allowance",
      "outputs": [
        {
          "internalType": "uint256",
          "name": "",
          "type": "uint256"
        }
      ],
      "stateMutability": "view",
      "type": "function",
      "constant": true
    },
    {
      "inputs": [
        {
          "internalType": "address",
          "name": "spender",
          "type": "address"
        },
        {
          "internalType": "uint256",
          "name": "amount",
          "type": "uint256"
        }
      ],
      "name": "approve",
      "outputs": [
        {
          "internalType": "bool",
          "name": "",
          "type": "bool"
        }
      ],
      "stateMutability": "nonpayable",
      "type": "function"
    },
    {
      "inputs": [
        {
          "internalType": "address",
          "name": "account",
          "type": "address"
        }
      ],
      "name": "balanceOf",
      "outputs": [
        {
          "internalType": "uint256",
          "name": "",
          "type": "uint256"
        }
      ],
      "stateMutability": "view",
      "type": "function",
      "constant": true
    },
    {
      "inputs": [
        {
          "internalType": "address",
          "name": "account",
          "type": "address"
        },
        {
          "internalType": "uint256",
          "name": "snapshotId",
          "type": "uint256"
        }
      ],
      "name": "balanceOfAt",
      "outputs": [
        {
          "internalType": "uint256",
          "name": "",
          "type": "uint256"
        }
      ],
      "stateMutability": "view",
      "type": "function",
      "constant": true
    },
    {
      "inputs": [
        {
          "internalType": "uint256",
          "name": "amount",
          "type": "uint256"
        }
      ],
      "name": "burn",
      "outputs": [],
      "stateMutability": "nonpayable",
      "type": "function"
    },
    {
      "inputs": [
        {
          "internalType": "address",
          "name": "account",
          "type": "address"
        },
        {
          "internalType": "uint256",
          "name": "amount",
          "type": "uint256"
        }
      ],
      "name": "burnFrom",
      "outputs": [],
      "stateMutability": "nonpayable",
      "type": "function"
    },
    {
      "inputs": [],
      "name": "decimals",
      "outputs": [
        {
          "internalType": "uint8",
          "name": "",
          "type": "uint8"
        }
      ],
      "stateMutability": "view",
      "type": "function",
      "constant": true
    },
    {
      "inputs": [
        {
          "internalType": "address",
          "name": "spender",
          "type": "address"
        },
        {
          "internalType": "uint256",
          "name": "subtractedValue",
          "type": "uint256"
        }
      ],
      "name": "decreaseAllowance",
      "outputs": [
        {
          "internalType": "bool",
          "name": "",
          "type": "bool"
        }
      ],
      "stateMutability": "nonpayable",
      "type": "function"
    },
    {
      "inputs": [
        {
          "internalType": "address",
          "name": "spender",
          "type": "address"
        },
        {
          "internalType": "uint256",
          "name": "addedValue",
          "type": "uint256"
        }
      ],
      "name": "increaseAllowance",
      "outputs": [
        {
          "internalType": "bool",
          "name": "",
          "type": "bool"
        }
      ],
      "stateMutability": "nonpayable",
      "type": "function"
    },
    {
      "inputs": [],
      "name": "name",
      "outputs": [
        {
          "internalType": "string",
          "name": "",
          "type": "string"
        }
      ],
      "stateMutability": "view",
      "type": "function",
      "constant": true
    },
    {
      "inputs": [],
      "name": "owner",
      "outputs": [
        {
          "internalType": "address",
          "name": "",
          "type": "address"
        }
      ],
      "stateMutability": "view",
      "type": "function",
      "constant": true
    },
    {
      "inputs": [],
      "name": "renounceOwnership",
      "outputs": [],
      "stateMutability": "nonpayable",
      "type": "function"
    },
    {
      "inputs": [],
      "name": "symbol",
      "outputs": [
        {
          "internalType": "string",
          "name": "",
          "type": "string"
        }
      ],
      "stateMutability": "view",
      "type": "function",
      "constant": true
    },
    {
      "inputs": [],
      "name": "totalSupply",
      "outputs": [
        {
          "internalType": "uint256",
          "name": "",
          "type": "uint256"
        }
      ],
      "stateMutability": "view",
      "type": "function",
      "constant": true
    },
    {
      "inputs": [
        {
          "internalType": "uint256",
          "name": "snapshotId",
          "type": "uint256"
        }
      ],
      "name": "totalSupplyAt",
      "outputs": [
        {
          "internalType": "uint256",
          "name": "",
          "type": "uint256"
        }
      ],
      "stateMutability": "view",
      "type": "function",
      "constant": true
    },
    {
      "inputs": [
        {
          "internalType": "address",
          "name": "recipient",
          "type": "address"
        },
        {
          "internalType": "uint256",
          "name": "amount",
          "type": "uint256"
        }
      ],
      "name": "transfer",
      "outputs": [
        {
          "internalType": "bool",
          "name": "",
          "type": "bool"
        }
      ],
      "stateMutability": "nonpayable",
      "type": "function"
    },
    {
      "inputs": [
        {
          "internalType": "address",
          "name": "sender",
          "type": "address"
        },
        {
          "internalType": "address",
          "name": "recipient",
          "type": "address"
        },
        {
          "internalType": "uint256",
          "name": "amount",
          "type": "uint256"
        }
      ],
      "name": "transferFrom",
      "outputs": [
        {
          "internalType": "bool",
          "name": "",
          "type": "bool"
        }
      ],
      "stateMutability": "nonpayable",
      "type": "function"
    },
    {
      "inputs": [
        {
          "internalType": "address",
          "name": "newOwner",
          "type": "address"
        }
      ],
      "name": "transferOwnership",
      "outputs": [],
      "stateMutability": "nonpayable",
      "type": "function"
    },
    {
      "inputs": [],
      "name": "snapshot",
      "outputs": [],
      "stateMutability": "nonpayable",
      "type": "function"
    }
  ],
  "bytecode": "0x60806040523480156200001157600080fd5b506040518060400160405280600981526020017f4e314345546f6b656e00000000000000000000000000000000000000000000008152506040518060400160405280600481526020017f4e314345000000000000000000000000000000000000000000000000000000008152508160039080519060200190620000969291906200062e565b508060049080519060200190620000af9291906200062e565b5050506000620000c4620001a960201b60201c565b905080600960006101000a81548173ffffffffffffffffffffffffffffffffffffffff021916908373ffffffffffffffffffffffffffffffffffffffff1602179055508073ffffffffffffffffffffffffffffffffffffffff16600073ffffffffffffffffffffffffffffffffffffffff167f8be0079c531659141344cd1fd0a4f28419497f9722a3daafe3b4186f6b6457e060405160405180910390a350620001a33362000178620001b160201b60201c565b600a62000186919062000839565b6305f5e10062000197919062000976565b620001ba60201b60201c565b62000aca565b600033905090565b60006012905090565b600073ffffffffffffffffffffffffffffffffffffffff168273ffffffffffffffffffffffffffffffffffffffff1614156200022d576040517f08c379a0000000000000000000000000000000000000000000000000000000008152600401620002249062000731565b60405180910390fd5b62000241600083836200031f60201b60201c565b806002600082825462000255919062000781565b92505081905550806000808473ffffffffffffffffffffffffffffffffffffffff1673ffffffffffffffffffffffffffffffffffffffff1681526020019081526020016000206000828254620002ac919062000781565b925050819055508173ffffffffffffffffffffffffffffffffffffffff16600073ffffffffffffffffffffffffffffffffffffffff167fddf252ad1be2c89b69c2b068fc378daa952ba7f163c4a11628f55a4df523b3ef8360405162000313919062000753565b60405180910390a35050565b620003378383836200033c60201b62000d8a1760201c565b505050565b620003548383836200043760201b62000e441760201c565b600073ffffffffffffffffffffffffffffffffffffffff168373ffffffffffffffffffffffffffffffffffffffff161415620003b1576200039b826200043c60201b60201c565b620003ab6200049f60201b60201c565b62000432565b600073ffffffffffffffffffffffffffffffffffffffff168273ffffffffffffffffffffffffffffffffffffffff1614156200040e57620003f8836200043c60201b60201c565b620004086200049f60201b60201c565b62000431565b6200041f836200043c60201b60201c565b62000430826200043c60201b60201c565b5b5b505050565b505050565b6200049c600560008373ffffffffffffffffffffffffffffffffffffffff1673ffffffffffffffffffffffffffffffffffffffff1681526020019081526020016000206200049083620004c360201b60201c565b6200050b60201b60201c565b50565b620004c16006620004b56200059e60201b60201c565b6200050b60201b60201c565b565b60008060008373ffffffffffffffffffffffffffffffffffffffff1673ffffffffffffffffffffffffffffffffffffffff168152602001908152602001600020549050919050565b6000620005246008620005a860201b62000e491760201c565b9050806200053b84600001620005b660201b60201c565b1015620005995782600001819080600181540180825580915050600190039060005260206000200160009091909190915055826001018290806001815401808255809150506001900390600052602060002001600090919091909150555b505050565b6000600254905090565b600081600001549050919050565b60008082805490501415620005cf576000905062000629565b8160018380549050620005e39190620009d7565b815481106200061b577f4e487b7100000000000000000000000000000000000000000000000000000000600052603260045260246000fd5b906000526020600020015490505b919050565b8280546200063c9062000a29565b90600052602060002090601f016020900481019282620006605760008555620006ac565b82601f106200067b57805160ff1916838001178555620006ac565b82800160010185558215620006ac579182015b82811115620006ab5782518255916020019190600101906200068e565b5b509050620006bb9190620006bf565b5090565b5b80821115620006da576000816000905550600101620006c0565b5090565b6000620006ed601f8362000770565b91507f45524332303a206d696e7420746f20746865207a65726f2061646472657373006000830152602082019050919050565b6200072b8162000a12565b82525050565b600060208201905081810360008301526200074c81620006de565b9050919050565b60006020820190506200076a600083018462000720565b92915050565b600082825260208201905092915050565b60006200078e8262000a12565b91506200079b8362000a12565b9250827fffffffffffffffffffffffffffffffffffffffffffffffffffffffffffffffff03821115620007d357620007d262000a5f565b5b828201905092915050565b6000808291508390505b6001851115620008305780860481111562000808576200080762000a5f565b5b6001851615620008185780820291505b8081029050620008288562000abd565b9450620007e8565b94509492505050565b6000620008468262000a12565b9150620008538362000a1c565b9250620008827fffffffffffffffffffffffffffffffffffffffffffffffffffffffffffffffff84846200088a565b905092915050565b6000826200089c57600190506200096f565b81620008ac57600090506200096f565b8160018114620008c55760028114620008d05762000906565b60019150506200096f565b60ff841115620008e557620008e462000a5f565b5b8360020a915084821115620008ff57620008fe62000a5f565b5b506200096f565b5060208310610133831016604e8410600b8410161715620009405782820a9050838111156200093a576200093962000a5f565b5b6200096f565b6200094f8484846001620007de565b9250905081840481111562000969576200096862000a5f565b5b81810290505b9392505050565b6000620009838262000a12565b9150620009908362000a12565b9250817fffffffffffffffffffffffffffffffffffffffffffffffffffffffffffffffff0483118215151615620009cc57620009cb62000a5f565b5b828202905092915050565b6000620009e48262000a12565b9150620009f18362000a12565b92508282101562000a075762000a0662000a5f565b5b828203905092915050565b6000819050919050565b600060ff82169050919050565b6000600282049050600182168062000a4257607f821691505b6020821081141562000a595762000a5862000a8e565b5b50919050565b7f4e487b7100000000000000000000000000000000000000000000000000000000600052601160045260246000fd5b7f4e487b7100000000000000000000000000000000000000000000000000000000600052602260045260246000fd5b60008160011c9050919050565b6124e98062000ada6000396000f3fe608060405234801561001057600080fd5b50600436106101215760003560e01c8063715018a6116100ad578063981b24d011610071578063981b24d0146102f8578063a457c2d714610328578063a9059cbb14610358578063dd62ed3e14610388578063f2fde38b146103b857610121565b8063715018a61461028c57806379cc6790146102965780638da5cb5b146102b257806395d89b41146102d05780639711715a146102ee57610121565b8063313ce567116100f4578063313ce567146101c257806339509351146101e057806342966c68146102105780634ee2cd7e1461022c57806370a082311461025c57610121565b806306fdde0314610126578063095ea7b31461014457806318160ddd1461017457806323b872dd14610192575b600080fd5b61012e6103d4565b60405161013b919061200d565b60405180910390f35b61015e600480360381019061015991906119db565b610466565b60405161016b9190611ff2565b60405180910390f35b61017c610484565b60405161018991906121ef565b60405180910390f35b6101ac60048036038101906101a7919061198c565b61048e565b6040516101b99190611ff2565b60405180910390f35b6101ca61058f565b6040516101d7919061220a565b60405180910390f35b6101fa60048036038101906101f591906119db565b610598565b6040516102079190611ff2565b60405180910390f35b61022a60048036038101906102259190611a17565b610644565b005b610246600480360381019061024191906119db565b610658565b60405161025391906121ef565b60405180910390f35b61027660048036038101906102719190611927565b6106c8565b60405161028391906121ef565b60405180910390f35b610294610710565b005b6102b060048036038101906102ab91906119db565b61084d565b005b6102ba6108d1565b6040516102c79190611fd7565b60405180910390f35b6102d86108fb565b6040516102e5919061200d565b60405180910390f35b6102f661098d565b005b610312600480360381019061030d9190611a17565b610a14565b60405161031f91906121ef565b60405180910390f35b610342600480360381019061033d91906119db565b610a45565b60405161034f9190611ff2565b60405180910390f35b610372600480360381019061036d91906119db565b610b39565b60405161037f9190611ff2565b60405180910390f35b6103a2600480360381019061039d9190611950565b610b57565b6040516103af91906121ef565b60405180910390f35b6103d260048036038101906103cd9190611927565b610bde565b005b6060600380546103e390612384565b80601f016020809104026020016040519081016040528092919081815260200182805461040f90612384565b801561045c5780601f106104315761010080835404028352916020019161045c565b820191906000526020600020905b81548152906001019060200180831161043f57829003601f168201915b5050505050905090565b600061047a610473610e57565b8484610e5f565b6001905092915050565b6000600254905090565b600061049b84848461102a565b6000600160008673ffffffffffffffffffffffffffffffffffffffff1673ffffffffffffffffffffffffffffffffffffffff16815260200190815260200160002060006104e6610e57565b73ffffffffffffffffffffffffffffffffffffffff1673ffffffffffffffffffffffffffffffffffffffff16815260200190815260200160002054905082811015610566576040517f08c379a000000000000000000000000000000000000000000000000000000000815260040161055d906120ef565b60405180910390fd5b61058385610572610e57565b858461057e91906122c8565b610e5f565b60019150509392505050565b60006012905090565b600061063a6105a5610e57565b8484600160006105b3610e57565b73ffffffffffffffffffffffffffffffffffffffff1673ffffffffffffffffffffffffffffffffffffffff16815260200190815260200160002060008873ffffffffffffffffffffffffffffffffffffffff1673ffffffffffffffffffffffffffffffffffffffff168152602001908152602001600020546106359190612241565b610e5f565b6001905092915050565b61065561064f610e57565b826112a9565b50565b60008060006106a584600560008873ffffffffffffffffffffffffffffffffffffffff1673ffffffffffffffffffffffffffffffffffffffff16815260200190815260200160002061147d565b91509150816106bc576106b7856106c8565b6106be565b805b9250505092915050565b60008060008373ffffffffffffffffffffffffffffffffffffffff1673ffffffffffffffffffffffffffffffffffffffff168152602001908152602001600020549050919050565b610718610e57565b73ffffffffffffffffffffffffffffffffffffffff166107366108d1565b73ffffffffffffffffffffffffffffffffffffffff161461078c576040517f08c379a00000000000000000000000000000000000000000000000000000000081526004016107839061210f565b60405180910390fd5b600073ffffffffffffffffffffffffffffffffffffffff16600960009054906101000a900473ffffffffffffffffffffffffffffffffffffffff1673ffffffffffffffffffffffffffffffffffffffff167f8be0079c531659141344cd1fd0a4f28419497f9722a3daafe3b4186f6b6457e060405160405180910390a36000600960006101000a81548173ffffffffffffffffffffffffffffffffffffffff021916908373ffffffffffffffffffffffffffffffffffffffff160217905550565b60006108608361085b610e57565b610b57565b9050818110156108a5576040517f08c379a000000000000000000000000000000000000000000000000000000000815260040161089c9061212f565b60405180910390fd5b6108c2836108b1610e57565b84846108bd91906122c8565b610e5f565b6108cc83836112a9565b505050565b6000600960009054906101000a900473ffffffffffffffffffffffffffffffffffffffff16905090565b60606004805461090a90612384565b80601f016020809104026020016040519081016040528092919081815260200182805461093690612384565b80156109835780601f1061095857610100808354040283529160200191610983565b820191906000526020600020905b81548152906001019060200180831161096657829003601f168201915b5050505050905090565b610995610e57565b73ffffffffffffffffffffffffffffffffffffffff166109b36108d1565b73ffffffffffffffffffffffffffffffffffffffff1614610a09576040517f08c379a0000000000000000000000000000000000000000000000000000000008152600401610a009061210f565b60405180910390fd5b610a1161159b565b50565b6000806000610a2484600661147d565b9150915081610a3a57610a35610484565b610a3c565b805b92505050919050565b60008060016000610a54610e57565b73ffffffffffffffffffffffffffffffffffffffff1673ffffffffffffffffffffffffffffffffffffffff16815260200190815260200160002060008573ffffffffffffffffffffffffffffffffffffffff1673ffffffffffffffffffffffffffffffffffffffff16815260200190815260200160002054905082811015610b11576040517f08c379a0000000000000000000000000000000000000000000000000000000008152600401610b08906121cf565b60405180910390fd5b610b2e610b1c610e57565b858584610b2991906122c8565b610e5f565b600191505092915050565b6000610b4d610b46610e57565b848461102a565b6001905092915050565b6000600160008473ffffffffffffffffffffffffffffffffffffffff1673ffffffffffffffffffffffffffffffffffffffff16815260200190815260200160002060008373ffffffffffffffffffffffffffffffffffffffff1673ffffffffffffffffffffffffffffffffffffffff16815260200190815260200160002054905092915050565b610be6610e57565b73ffffffffffffffffffffffffffffffffffffffff16610c046108d1565b73ffffffffffffffffffffffffffffffffffffffff1614610c5a576040517f08c379a0000000000000000000000000000000000000000000000000000000008152600401610c519061210f565b60405180910390fd5b600073ffffffffffffffffffffffffffffffffffffffff168173ffffffffffffffffffffffffffffffffffffffff161415610cca576040517f08c379a0000000000000000000000000000000000000000000000000000000008152600401610cc19061208f565b60405180910390fd5b8073ffffffffffffffffffffffffffffffffffffffff16600960009054906101000a900473ffffffffffffffffffffffffffffffffffffffff1673ffffffffffffffffffffffffffffffffffffffff167f8be0079c531659141344cd1fd0a4f28419497f9722a3daafe3b4186f6b6457e060405160405180910390a380600960006101000a81548173ffffffffffffffffffffffffffffffffffffffff021916908373ffffffffffffffffffffffffffffffffffffffff16021790555050565b610d95838383610e44565b600073ffffffffffffffffffffffffffffffffffffffff168373ffffffffffffffffffffffffffffffffffffffff161415610de057610dd3826115f3565b610ddb611646565b610e3f565b600073ffffffffffffffffffffffffffffffffffffffff168273ffffffffffffffffffffffffffffffffffffffff161415610e2b57610e1e836115f3565b610e26611646565b610e3e565b610e34836115f3565b610e3d826115f3565b5b5b505050565b505050565b600081600001549050919050565b600033905090565b600073ffffffffffffffffffffffffffffffffffffffff168373ffffffffffffffffffffffffffffffffffffffff161415610ecf576040517f08c379a0000000000000000000000000000000000000000000000000000000008152600401610ec69061218f565b60405180910390fd5b600073ffffffffffffffffffffffffffffffffffffffff168273ffffffffffffffffffffffffffffffffffffffff161415610f3f576040517f08c379a0000000000000000000000000000000000000000000000000000000008152600401610f36906120af565b60405180910390fd5b80600160008573ffffffffffffffffffffffffffffffffffffffff1673ffffffffffffffffffffffffffffffffffffffff16815260200190815260200160002060008473ffffffffffffffffffffffffffffffffffffffff1673ffffffffffffffffffffffffffffffffffffffff168152602001908152602001600020819055508173ffffffffffffffffffffffffffffffffffffffff168373ffffffffffffffffffffffffffffffffffffffff167f8c5be1e5ebec7d5bd14f71427d1e84f3dd0314c0f7b2291e5b200ac8c7c3b9258360405161101d91906121ef565b60405180910390a3505050565b600073ffffffffffffffffffffffffffffffffffffffff168373ffffffffffffffffffffffffffffffffffffffff16141561109a576040517f08c379a00000000000000000000000000000000000000000000000000000000081526004016110919061216f565b60405180910390fd5b600073ffffffffffffffffffffffffffffffffffffffff168273ffffffffffffffffffffffffffffffffffffffff16141561110a576040517f08c379a00000000000000000000000000000000000000000000000000000000081526004016111019061204f565b60405180910390fd5b61111583838361165a565b60008060008573ffffffffffffffffffffffffffffffffffffffff1673ffffffffffffffffffffffffffffffffffffffff1681526020019081526020016000205490508181101561119b576040517f08c379a0000000000000000000000000000000000000000000000000000000008152600401611192906120cf565b60405180910390fd5b81816111a791906122c8565b6000808673ffffffffffffffffffffffffffffffffffffffff1673ffffffffffffffffffffffffffffffffffffffff16815260200190815260200160002081905550816000808573ffffffffffffffffffffffffffffffffffffffff1673ffffffffffffffffffffffffffffffffffffffff16815260200190815260200160002060008282546112379190612241565b925050819055508273ffffffffffffffffffffffffffffffffffffffff168473ffffffffffffffffffffffffffffffffffffffff167fddf252ad1be2c89b69c2b068fc378daa952ba7f163c4a11628f55a4df523b3ef8460405161129b91906121ef565b60405180910390a350505050565b600073ffffffffffffffffffffffffffffffffffffffff168273ffffffffffffffffffffffffffffffffffffffff161415611319576040517f08c379a00000000000000000000000000000000000000000000000000000000081526004016113109061214f565b60405180910390fd5b6113258260008361165a565b60008060008473ffffffffffffffffffffffffffffffffffffffff1673ffffffffffffffffffffffffffffffffffffffff168152602001908152602001600020549050818110156113ab576040517f08c379a00000000000000000000000000000000000000000000000000000000081526004016113a29061206f565b60405180910390fd5b81816113b791906122c8565b6000808573ffffffffffffffffffffffffffffffffffffffff1673ffffffffffffffffffffffffffffffffffffffff16815260200190815260200160002081905550816002600082825461140b91906122c8565b92505081905550600073ffffffffffffffffffffffffffffffffffffffff168373ffffffffffffffffffffffffffffffffffffffff167fddf252ad1be2c89b69c2b068fc378daa952ba7f163c4a11628f55a4df523b3ef8460405161147091906121ef565b60405180910390a3505050565b600080600084116114c3576040517f08c379a00000000000000000000000000000000000000000000000000000000081526004016114ba906121af565b60405180910390fd5b6114cd6008610e49565b84111561150f576040517f08c379a00000000000000000000000000000000000000000000000000000000081526004016115069061202f565b60405180910390fd5b6000611527858560000161166a90919063ffffffff16565b90508360000180549050811415611545576000809250925050611594565b6001846001018281548110611583577f4e487b7100000000000000000000000000000000000000000000000000000000600052603260045260246000fd5b906000526020600020015492509250505b9250929050565b60006115a76008611790565b60006115b36008610e49565b90507f8030e83b04d87bef53480e26263266d6ca66863aa8506aca6f2559d18aa1cb67816040516115e491906121ef565b60405180910390a18091505090565b611643600560008373ffffffffffffffffffffffffffffffffffffffff1673ffffffffffffffffffffffffffffffffffffffff16815260200190815260200160002061163e836106c8565b6117a6565b50565b6116586006611653610484565b6117a6565b565b611665838383610d8a565b505050565b60008083805490501415611681576000905061178a565b600080848054905090505b8082101561170b5760006116a08383611823565b9050848682815481106116dc577f4e487b7100000000000000000000000000000000000000000000000000000000600052603260045260246000fd5b906000526020600020015411156116f557809150611705565b6001816117029190612241565b92505b5061168c565b6000821180156117695750838560018461172591906122c8565b8154811061175c577f4e487b7100000000000000000000000000000000000000000000000000000000600052603260045260246000fd5b9060005260206000200154145b156117845760018261177b91906122c8565b9250505061178a565b81925050505b92915050565b6001816000016000828254019250508190555050565b60006117b26008610e49565b9050806117c18460000161188a565b101561181e5782600001819080600181540180825580915050600190039060005260206000200160009091909190915055826001018290806001815401808255809150506001900390600052602060002001600090919091909150555b505050565b60006002808361183391906123b6565b60028561184091906123b6565b61184a9190612241565b6118549190612297565b6002836118619190612297565b60028561186e9190612297565b6118789190612241565b6118829190612241565b905092915050565b600080828054905014156118a157600090506118f8565b81600183805490506118b391906122c8565b815481106118ea577f4e487b7100000000000000000000000000000000000000000000000000000000600052603260045260246000fd5b906000526020600020015490505b919050565b60008135905061190c81612485565b92915050565b6000813590506119218161249c565b92915050565b60006020828403121561193957600080fd5b6000611947848285016118fd565b91505092915050565b6000806040838503121561196357600080fd5b6000611971858286016118fd565b9250506020611982858286016118fd565b9150509250929050565b6000806000606084860312156119a157600080fd5b60006119af868287016118fd565b93505060206119c0868287016118fd565b92505060406119d186828701611912565b9150509250925092565b600080604083850312156119ee57600080fd5b60006119fc858286016118fd565b9250506020611a0d85828601611912565b9150509250929050565b600060208284031215611a2957600080fd5b6000611a3784828501611912565b91505092915050565b611a49816122fc565b82525050565b611a588161230e565b82525050565b6000611a6982612225565b611a738185612230565b9350611a83818560208601612351565b611a8c81612474565b840191505092915050565b6000611aa4601d83612230565b91507f4552433230536e617073686f743a206e6f6e6578697374656e742069640000006000830152602082019050919050565b6000611ae4602383612230565b91507f45524332303a207472616e7366657220746f20746865207a65726f206164647260008301527f65737300000000000000000000000000000000000000000000000000000000006020830152604082019050919050565b6000611b4a602283612230565b91507f45524332303a206275726e20616d6f756e7420657863656564732062616c616e60008301527f63650000000000000000000000000000000000000000000000000000000000006020830152604082019050919050565b6000611bb0602683612230565b91507f4f776e61626c653a206e6577206f776e657220697320746865207a65726f206160008301527f64647265737300000000000000000000000000000000000000000000000000006020830152604082019050919050565b6000611c16602283612230565b91507f45524332303a20617070726f766520746f20746865207a65726f20616464726560008301527f73730000000000000000000000000000000000000000000000000000000000006020830152604082019050919050565b6000611c7c602683612230565b91507f45524332303a207472616e7366657220616d6f756e742065786365656473206260008301527f616c616e636500000000000000000000000000000000000000000000000000006020830152604082019050919050565b6000611ce2602883612230565b91507f45524332303a207472616e7366657220616d6f756e742065786365656473206160008301527f6c6c6f77616e63650000000000000000000000000000000000000000000000006020830152604082019050919050565b6000611d48602083612230565b91507f4f776e61626c653a2063616c6c6572206973206e6f7420746865206f776e65726000830152602082019050919050565b6000611d88602483612230565b91507f45524332303a206275726e20616d6f756e74206578636565647320616c6c6f7760008301527f616e6365000000000000000000000000000000000000000000000000000000006020830152604082019050919050565b6000611dee602183612230565b91507f45524332303a206275726e2066726f6d20746865207a65726f2061646472657360008301527f73000000000000000000000000000000000000000000000000000000000000006020830152604082019050919050565b6000611e54602583612230565b91507f45524332303a207472616e736665722066726f6d20746865207a65726f20616460008301527f64726573730000000000000000000000000000000000000000000000000000006020830152604082019050919050565b6000611eba602483612230565b91507f45524332303a20617070726f76652066726f6d20746865207a65726f2061646460008301527f72657373000000000000000000000000000000000000000000000000000000006020830152604082019050919050565b6000611f20601683612230565b91507f4552433230536e617073686f743a2069642069732030000000000000000000006000830152602082019050919050565b6000611f60602583612230565b91507f45524332303a2064656372656173656420616c6c6f77616e63652062656c6f7760008301527f207a65726f0000000000000000000000000000000000000000000000000000006020830152604082019050919050565b611fc28161233a565b82525050565b611fd181612344565b82525050565b6000602082019050611fec6000830184611a40565b92915050565b60006020820190506120076000830184611a4f565b92915050565b600060208201905081810360008301526120278184611a5e565b905092915050565b6000602082019050818103600083015261204881611a97565b9050919050565b6000602082019050818103600083015261206881611ad7565b9050919050565b6000602082019050818103600083015261208881611b3d565b9050919050565b600060208201905081810360008301526120a881611ba3565b9050919050565b600060208201905081810360008301526120c881611c09565b9050919050565b600060208201905081810360008301526120e881611c6f565b9050919050565b6000602082019050818103600083015261210881611cd5565b9050919050565b6000602082019050818103600083015261212881611d3b565b9050919050565b6000602082019050818103600083015261214881611d7b565b9050919050565b6000602082019050818103600083015261216881611de1565b9050919050565b6000602082019050818103600083015261218881611e47565b9050919050565b600060208201905081810360008301526121a881611ead565b9050919050565b600060208201905081810360008301526121c881611f13565b9050919050565b600060208201905081810360008301526121e881611f53565b9050919050565b60006020820190506122046000830184611fb9565b92915050565b600060208201905061221f6000830184611fc8565b92915050565b600081519050919050565b600082825260208201905092915050565b600061224c8261233a565b91506122578361233a565b9250827fffffffffffffffffffffffffffffffffffffffffffffffffffffffffffffffff0382111561228c5761228b6123e7565b5b828201905092915050565b60006122a28261233a565b91506122ad8361233a565b9250826122bd576122bc612416565b5b828204905092915050565b60006122d38261233a565b91506122de8361233a565b9250828210156122f1576122f06123e7565b5b828203905092915050565b60006123078261231a565b9050919050565b60008115159050919050565b600073ffffffffffffffffffffffffffffffffffffffff82169050919050565b6000819050919050565b600060ff82169050919050565b60005b8381101561236f578082015181840152602081019050612354565b8381111561237e576000848401525b50505050565b6000600282049050600182168061239c57607f821691505b602082108114156123b0576123af612445565b5b50919050565b60006123c18261233a565b91506123cc8361233a565b9250826123dc576123db612416565b5b828206905092915050565b7f4e487b7100000000000000000000000000000000000000000000000000000000600052601160045260246000fd5b7f4e487b7100000000000000000000000000000000000000000000000000000000600052601260045260246000fd5b7f4e487b7100000000000000000000000000000000000000000000000000000000600052602260045260246000fd5b6000601f19601f8301169050919050565b61248e816122fc565b811461249957600080fd5b50565b6124a58161233a565b81146124b057600080fd5b5056fea26469706673582212203c2b1cdda22e9095edac51cb22e6084e9e196dd54eceb424ead88ef88c7da55964736f6c63430008000033",
  "immutableReferences": {},
  "source": "// SPDX-License-Identifier: MIT\npragma solidity ^0.8.0;\n\nimport \"@openzeppelin/contracts/token/ERC20/ERC20.sol\";\nimport \"@openzeppelin/contracts/token/ERC20/extensions/ERC20Burnable.sol\";\nimport \"@openzeppelin/contracts/token/ERC20/extensions/ERC20Snapshot.sol\";\nimport \"@openzeppelin/contracts/access/Ownable.sol\";\n\ncontract N1CEToken is ERC20, ERC20Burnable, ERC20Snapshot, Ownable {\n    constructor() ERC20(\"N1CEToken\", \"N1CE\") {\n        _mint(msg.sender, 100000000 * 10 ** decimals());\n    }\n\n    function snapshot() public onlyOwner {\n        _snapshot();\n    }\n\n    function _beforeTokenTransfer(address from, address to, uint256 amount)\n        internal\n        override(ERC20, ERC20Snapshot)\n    {\n        super._beforeTokenTransfer(from, to, amount);\n    }\n}\n",
  "sourcePath": "C:/Ronny/N1CE/n1cetoken/contracts/N1CEToken.sol",
  "compiler": {
    "name": "solc",
    "version": "0.8.0+commit.c7dfd78e.Emscripten.clang"
  },
  "schemaVersion": "3.4.0",
  "updatedAt": "2021-05-05T16:32:38.566Z",
  "networkType": "ethereum",
  "devdoc": {
    "kind": "dev",
    "methods": {
      "allowance(address,address)": {
        "details": "See {IERC20-allowance}."
      },
      "approve(address,uint256)": {
        "details": "See {IERC20-approve}. Requirements: - `spender` cannot be the zero address."
      },
      "balanceOf(address)": {
        "details": "See {IERC20-balanceOf}."
      },
      "balanceOfAt(address,uint256)": {
        "details": "Retrieves the balance of `account` at the time `snapshotId` was created."
      },
      "burn(uint256)": {
        "details": "Destroys `amount` tokens from the caller. See {ERC20-_burn}."
      },
      "burnFrom(address,uint256)": {
        "details": "Destroys `amount` tokens from `account`, deducting from the caller's allowance. See {ERC20-_burn} and {ERC20-allowance}. Requirements: - the caller must have allowance for ``accounts``'s tokens of at least `amount`."
      },
      "decimals()": {
        "details": "Returns the number of decimals used to get its user representation. For example, if `decimals` equals `2`, a balance of `505` tokens should be displayed to a user as `5,05` (`505 / 10 ** 2`). Tokens usually opt for a value of 18, imitating the relationship between Ether and Wei. This is the value {ERC20} uses, unless this function is overridden; NOTE: This information is only used for _display_ purposes: it in no way affects any of the arithmetic of the contract, including {IERC20-balanceOf} and {IERC20-transfer}."
      },
      "decreaseAllowance(address,uint256)": {
        "details": "Atomically decreases the allowance granted to `spender` by the caller. This is an alternative to {approve} that can be used as a mitigation for problems described in {IERC20-approve}. Emits an {Approval} event indicating the updated allowance. Requirements: - `spender` cannot be the zero address. - `spender` must have allowance for the caller of at least `subtractedValue`."
      },
      "increaseAllowance(address,uint256)": {
        "details": "Atomically increases the allowance granted to `spender` by the caller. This is an alternative to {approve} that can be used as a mitigation for problems described in {IERC20-approve}. Emits an {Approval} event indicating the updated allowance. Requirements: - `spender` cannot be the zero address."
      },
      "name()": {
        "details": "Returns the name of the token."
      },
      "owner()": {
        "details": "Returns the address of the current owner."
      },
      "renounceOwnership()": {
        "details": "Leaves the contract without owner. It will not be possible to call `onlyOwner` functions anymore. Can only be called by the current owner. NOTE: Renouncing ownership will leave the contract without an owner, thereby removing any functionality that is only available to the owner."
      },
      "symbol()": {
        "details": "Returns the symbol of the token, usually a shorter version of the name."
      },
      "totalSupply()": {
        "details": "See {IERC20-totalSupply}."
      },
      "totalSupplyAt(uint256)": {
        "details": "Retrieves the total supply at the time `snapshotId` was created."
      },
      "transfer(address,uint256)": {
        "details": "See {IERC20-transfer}. Requirements: - `recipient` cannot be the zero address. - the caller must have a balance of at least `amount`."
      },
      "transferFrom(address,address,uint256)": {
        "details": "See {IERC20-transferFrom}. Emits an {Approval} event indicating the updated allowance. This is not required by the EIP. See the note at the beginning of {ERC20}. Requirements: - `sender` and `recipient` cannot be the zero address. - `sender` must have a balance of at least `amount`. - the caller must have allowance for ``sender``'s tokens of at least `amount`."
      },
      "transferOwnership(address)": {
        "details": "Transfers ownership of the contract to a new account (`newOwner`). Can only be called by the current owner."
      }
    },
    "version": 1
  },
  "userdoc": {
    "kind": "user",
    "methods": {},
    "version": 1
  }
}